:100000000C9434000C9446000C9446000C9446006A
:100010000C9446000C9446000C9446000C94460048
:100020000C9446000C9446000C9446000C94460038
:100030000C9446000C9446000C9446000C94460028
:100040000C9475000C9446000C9446000C944600E9
:100050000C9446000C9446000C9446000C94460008
:100060000C9446000C94460011241FBECFEFD8E03C
:10007000DEBFCDBF21E0A0E0B1E001C01D92A930FC
:10008000B207E1F70E94BF000C940D010C94000030
:1000900088278093C0008093C50087E68093C400C2
:1000A00088E18093C10086E08093C2000895EAEC65
:1000B000F0E02591203039F01091C00015FFFCCF01
:1000C0002093C600F6CF09D0089553696E2061636E
:1000D000746976696461640A0D00EEE3FCE93197A6
:1000E000F1F74150D1F7000008951F920F920FB61B
:1000F0000F9211242F933F938F939F93AF93BF93AE
:100100008091050190910601A0910701B09108012D
:100110003091040123E0230F2D3758F50196A11DDE
:10012000B11D209304018093050190930601A093D3
:100130000701B09308018091000190910101A09105
:100140000201B09103010196A11DB11D8093000130
:1001500090930101A0930201B0930301BF91AF916D
:100160009F918F913F912F910F900FBE0F901F90F5
:10017000189526E8230F0296A11DB11DD2CF7894C1
:1001800084B5826084BD84B5816084BD85B582609C
:1001900085BD85B5816085BD80916E00816080934D
:1001A0006E001092810080918100826080938100B6
:1001B00080918100816080938100809180008160C6
:1001C000809380008091B10084608093B100809121
:1001D000B00081608093B00080917A008460809349
:1001E0007A0080917A00826080937A0080917A0010
:1001F000816080937A0080917A00806880937A0091
:100200001092C1000E944800C0E0D0E00E94570058
:0E0210002097E1F30E940000F9CFF894FFCF91
:040000030000009069
:00000001FF
